{
  "_format": "hh-sol-artifact-1",
  "contractName": "HealthCertificateRBAC",
  "sourceName": "contracts/HealthCertificateRBAC.sol",
  "abi": [
    {
      "inputs": [
        {
          "internalType": "address",
          "name": "admin",
          "type": "address"
        }
      ],
      "stateMutability": "nonpayable",
      "type": "constructor"
    },
    {
      "inputs": [],
      "name": "AccessControlBadConfirmation",
      "type": "error"
    },
    {
      "inputs": [
        {
          "internalType": "address",
          "name": "account",
          "type": "address"
        },
        {
          "internalType": "bytes32",
          "name": "neededRole",
          "type": "bytes32"
        }
      ],
      "name": "AccessControlUnauthorizedAccount",
      "type": "error"
    },
    {
      "anonymous": false,
      "inputs": [
        {
          "indexed": true,
          "internalType": "address",
          "name": "patient",
          "type": "address"
        },
        {
          "indexed": true,
          "internalType": "bytes32",
          "name": "certHash",
          "type": "bytes32"
        },
        {
          "indexed": true,
          "internalType": "address",
          "name": "doctor",
          "type": "address"
        }
      ],
      "name": "CertificateIssued",
      "type": "event"
    },
    {
      "anonymous": false,
      "inputs": [
        {
          "indexed": true,
          "internalType": "bytes32",
          "name": "role",
          "type": "bytes32"
        },
        {
          "indexed": true,
          "internalType": "bytes32",
          "name": "previousAdminRole",
          "type": "bytes32"
        },
        {
          "indexed": true,
          "internalType": "bytes32",
          "name": "newAdminRole",
          "type": "bytes32"
        }
      ],
      "name": "RoleAdminChanged",
      "type": "event"
    },
    {
      "anonymous": false,
      "inputs": [
        {
          "indexed": true,
          "internalType": "address",
          "name": "account",
          "type": "address"
        },
        {
          "indexed": true,
          "internalType": "bytes32",
          "name": "role",
          "type": "bytes32"
        }
      ],
      "name": "RoleAssigned",
      "type": "event"
    },
    {
      "anonymous": false,
      "inputs": [
        {
          "indexed": true,
          "internalType": "bytes32",
          "name": "role",
          "type": "bytes32"
        },
        {
          "indexed": true,
          "internalType": "address",
          "name": "account",
          "type": "address"
        },
        {
          "indexed": true,
          "internalType": "address",
          "name": "sender",
          "type": "address"
        }
      ],
      "name": "RoleGranted",
      "type": "event"
    },
    {
      "anonymous": false,
      "inputs": [
        {
          "indexed": true,
          "internalType": "bytes32",
          "name": "role",
          "type": "bytes32"
        },
        {
          "indexed": true,
          "internalType": "address",
          "name": "account",
          "type": "address"
        },
        {
          "indexed": true,
          "internalType": "address",
          "name": "sender",
          "type": "address"
        }
      ],
      "name": "RoleRevoked",
      "type": "event"
    },
    {
      "anonymous": false,
      "inputs": [
        {
          "indexed": true,
          "internalType": "address",
          "name": "account",
          "type": "address"
        },
        {
          "indexed": true,
          "internalType": "bytes32",
          "name": "role",
          "type": "bytes32"
        }
      ],
      "name": "RoleRevoked",
      "type": "event"
    },
    {
      "inputs": [],
      "name": "ADMIN_ROLE",
      "outputs": [
        {
          "internalType": "bytes32",
          "name": "",
          "type": "bytes32"
        }
      ],
      "stateMutability": "view",
      "type": "function"
    },
    {
      "inputs": [],
      "name": "DEFAULT_ADMIN_ROLE",
      "outputs": [
        {
          "internalType": "bytes32",
          "name": "",
          "type": "bytes32"
        }
      ],
      "stateMutability": "view",
      "type": "function"
    },
    {
      "inputs": [],
      "name": "DOCTOR_ROLE",
      "outputs": [
        {
          "internalType": "bytes32",
          "name": "",
          "type": "bytes32"
        }
      ],
      "stateMutability": "view",
      "type": "function"
    },
    {
      "inputs": [],
      "name": "NURSE_ROLE",
      "outputs": [
        {
          "internalType": "bytes32",
          "name": "",
          "type": "bytes32"
        }
      ],
      "stateMutability": "view",
      "type": "function"
    },
    {
      "inputs": [],
      "name": "RECEPTIONIST_ROLE",
      "outputs": [
        {
          "internalType": "bytes32",
          "name": "",
          "type": "bytes32"
        }
      ],
      "stateMutability": "view",
      "type": "function"
    },
    {
      "inputs": [
        {
          "internalType": "address",
          "name": "account",
          "type": "address"
        },
        {
          "internalType": "bytes32",
          "name": "role",
          "type": "bytes32"
        }
      ],
      "name": "assignRole",
      "outputs": [],
      "stateMutability": "nonpayable",
      "type": "function"
    },
    {
      "inputs": [
        {
          "internalType": "address",
          "name": "patient",
          "type": "address"
        }
      ],
      "name": "getCertificates",
      "outputs": [
        {
          "internalType": "bytes32[]",
          "name": "",
          "type": "bytes32[]"
        }
      ],
      "stateMutability": "view",
      "type": "function"
    },
    {
      "inputs": [
        {
          "internalType": "bytes32",
          "name": "role",
          "type": "bytes32"
        }
      ],
      "name": "getRoleAdmin",
      "outputs": [
        {
          "internalType": "bytes32",
          "name": "",
          "type": "bytes32"
        }
      ],
      "stateMutability": "view",
      "type": "function"
    },
    {
      "inputs": [
        {
          "internalType": "bytes32",
          "name": "role",
          "type": "bytes32"
        },
        {
          "internalType": "address",
          "name": "account",
          "type": "address"
        }
      ],
      "name": "grantRole",
      "outputs": [],
      "stateMutability": "nonpayable",
      "type": "function"
    },
    {
      "inputs": [
        {
          "internalType": "bytes32",
          "name": "role",
          "type": "bytes32"
        },
        {
          "internalType": "address",
          "name": "account",
          "type": "address"
        }
      ],
      "name": "hasRole",
      "outputs": [
        {
          "internalType": "bool",
          "name": "",
          "type": "bool"
        }
      ],
      "stateMutability": "view",
      "type": "function"
    },
    {
      "inputs": [
        {
          "internalType": "address",
          "name": "account",
          "type": "address"
        },
        {
          "internalType": "bytes32",
          "name": "role",
          "type": "bytes32"
        }
      ],
      "name": "isRole",
      "outputs": [
        {
          "internalType": "bool",
          "name": "",
          "type": "bool"
        }
      ],
      "stateMutability": "view",
      "type": "function"
    },
    {
      "inputs": [
        {
          "internalType": "address",
          "name": "patient",
          "type": "address"
        },
        {
          "internalType": "bytes32",
          "name": "certHash",
          "type": "bytes32"
        }
      ],
      "name": "issueCertificate",
      "outputs": [],
      "stateMutability": "nonpayable",
      "type": "function"
    },
    {
      "inputs": [
        {
          "internalType": "bytes32",
          "name": "role",
          "type": "bytes32"
        },
        {
          "internalType": "address",
          "name": "account",
          "type": "address"
        }
      ],
      "name": "renounceRole",
      "outputs": [],
      "stateMutability": "nonpayable",
      "type": "function"
    },
    {
      "inputs": [
        {
          "internalType": "address",
          "name": "account",
          "type": "address"
        },
        {
          "internalType": "bytes32",
          "name": "role",
          "type": "bytes32"
        }
      ],
      "name": "revokeRole",
      "outputs": [],
      "stateMutability": "nonpayable",
      "type": "function"
    },
    {
      "inputs": [
        {
          "internalType": "bytes32",
          "name": "role",
          "type": "bytes32"
        },
        {
          "internalType": "address",
          "name": "account",
          "type": "address"
        }
      ],
      "name": "revokeRole",
      "outputs": [],
      "stateMutability": "nonpayable",
      "type": "function"
    },
    {
      "inputs": [
        {
          "internalType": "bytes4",
          "name": "interfaceId",
          "type": "bytes4"
        }
      ],
      "name": "supportsInterface",
      "outputs": [
        {
          "internalType": "bool",
          "name": "",
          "type": "bool"
        }
      ],
      "stateMutability": "view",
      "type": "function"
    }
  ],
  "bytecode": "0x6080346100b357601f610cb638819003918201601f19168301916001600160401b038311848410176100b8578084926020946040528339810103126100b357516001600160a01b0381168082036100b3571561006e5761005e906100ce565b50604051610b3590816101818239f35b60405162461bcd60e51b815260206004820152601560248201527f496e76616c69642061646d696e206164647265737300000000000000000000006044820152606490fd5b600080fd5b634e487b7160e01b600052604160045260246000fd5b6001600160a01b031660008181527f7d7ffb7a348e1c6a02869081a26547b49160dd3df72d1d75a570eb9b698292ec60205260408120549091907fa49807205ce4d355092ef5a8a18f56e8913cf4a201fbe287825b095693c217759060ff1661017b57808352826020526040832082845260205260408320600160ff198254161790557f2f8788117e7eff1d82e926ec794901d17c78024a50270940304540a733656f0d339380a4600190565b50509056fe608060408181526004918236101561001657600080fd5b600092833560e01c91826301ffc9a714610818575081631908999f1461067d5781631d9486de14610554578163208dd1ff1461042b578163248a9ca3146104015781632f2ff15d146103d757816336568abe146103785781635ba161381461033d578163709f75b31461030257816375b238fc146102c757816386aab2761461028157816391d148541461023b578163a217fddf14610220578163d547741f146101dd578163f1c49c6214610100575063fec331f2146100d557600080fd5b346100fc57816003193601126100fc5760209051600080516020610ae08339815191528152f35b5080fd5b905082346101da57602092836003193601126100fc576001600160a01b0361012661086b565b16825260019384815281832092825192828481875491828152019081978552828520908a865b8281106101c55750505050859003601f01601f1916850196905067ffffffffffffffff8711858810176101b2575092869284878096528186019282875251809352850195925b82811061019f5785870386f35b8351875295810195928101928401610192565b634e487b7160e01b835260419052602482fd5b8354855288959094019392810192810161014c565b80fd5b9190503461021c578060031936011261021c5761021891356102136001610202610886565b93838752866020528620015461089c565b61095e565b5080f35b8280fd5b5050346100fc57816003193601126100fc5751908152602090f35b90503461021c578160031936011261021c578160209360ff9261025c610886565b903582528186528282206001600160a01b039091168252855220549151911615158152f35b5050346100fc57806003193601126100fc5760ff816020936102a161086b565b60243582528186528282206001600160a01b039091168252855220549151911615158152f35b5050346100fc57816003193601126100fc57602090517fa49807205ce4d355092ef5a8a18f56e8913cf4a201fbe287825b095693c217758152f35b5050346100fc57816003193601126100fc57602090517f9102e22bff2cc289b9efbcc45f686cf0f470b1dcecedd2019beff8d2f00d091f8152f35b5050346100fc57816003193601126100fc57602090517fb5a7f51d0593e853ad0aa6b718ee0bdd10c4966eb62d243b69d538e5823d04018152f35b905082346101da57826003193601126101da57506020606492610399610886565b505162461bcd60e51b815291820152601d60248201527f526f6c652072656e6f756e63656d656e74206e6f7420616c6c6f7765640000006044820152fd5b9190503461021c578060031936011261021c5761021891356103fc6001610202610886565b6108e0565b90503461021c57602036600319011261021c57816020936001923581528085522001549051908152f35b5050346100fc57806003193601126100fc5761044561086b565b61048760ff602435937fa49807205ce4d355092ef5a8a18f56e8913cf4a201fbe287825b095693c21775865285602052808620338752602052852054166109d3565b6001600160a01b038116906104ec906104a1831515610a18565b6104ac841515610a64565b7fb5a7f51d0593e853ad0aa6b718ee0bdd10c4966eb62d243b69d538e5823d04018414801561052b575b8015610514575b6104e690610a9f565b8361095e565b507fea83a7caef01824e96446a8c4bc8ff4669edd99e129b53e32c077f85d21680818380a380f35b50600080516020610ae083398151915284146104dd565b507f9102e22bff2cc289b9efbcc45f686cf0f470b1dcecedd2019beff8d2f00d091f84146104d6565b5050346100fc57806003193601126100fc5761056e61086b565b6105b060ff602435937fa49807205ce4d355092ef5a8a18f56e8913cf4a201fbe287825b095693c21775865285602052808620338752602052852054166109d3565b6001600160a01b03811690610615906105ca831515610a18565b6105d5841515610a64565b7fb5a7f51d0593e853ad0aa6b718ee0bdd10c4966eb62d243b69d538e5823d040184148015610654575b801561063d575b61060f90610a9f565b836108e0565b507f0666448aae9b9c8249fd8213a35a9c10218a0eac2fb39b96ed90c67214c7e7618380a380f35b50600080516020610ae08339815191528414610606565b507f9102e22bff2cc289b9efbcc45f686cf0f470b1dcecedd2019beff8d2f00d091f84146105ff565b8383346100fc57806003193601126100fc5761069761086b565b602493843591600080516020610ae08339815191528552602090858252848620338752825260ff8587205416156107dd576001600160a01b031693841561079e57831561075f578486526001825285208054926801000000000000000084101561074d576001840180835584101561073b5750855284200181905533917f62c7d1f5203cd8a0f2a76faedc0536635fe41337969f52b07cfd6a2364171e768480a480f35b634e487b7160e01b8752603290528686fd5b634e487b7160e01b8752604190528686fd5b5162461bcd60e51b8152918201526018818601527f496e76616c6964206365727469666963617465206861736800000000000000006044820152606490fd5b5162461bcd60e51b8152918201526017818601527f496e76616c69642070617469656e7420616464726573730000000000000000006044820152606490fd5b845162461bcd60e51b81528084018390526016818901527521b0b63632b91034b9903737ba1030903237b1ba37b960511b6044820152606490fd5b84913461021c57602036600319011261021c573563ffffffff60e01b811680910361021c5760209250637965db0b60e01b811490811561085a575b5015158152f35b6301ffc9a760e01b14905083610853565b600435906001600160a01b038216820361088157565b600080fd5b602435906001600160a01b038216820361088157565b80600052600060205260406000203360005260205260ff60406000205416156108c25750565b6044906040519063e2517d3f60e01b82523360048301526024820152fd5b9060009180835282602052604083209160018060a01b03169182845260205260ff6040842054161560001461095957808352826020526040832082845260205260408320600160ff198254161790557f2f8788117e7eff1d82e926ec794901d17c78024a50270940304540a733656f0d339380a4600190565b505090565b9060009180835282602052604083209160018060a01b03169182845260205260ff6040842054166000146109595780835282602052604083208284526020526040832060ff1981541690557ff6391f5c32d9c69d2a47ea670b442974b53935d1edc7fd64eb21e047a839171b339380a4600190565b156109da57565b60405162461bcd60e51b815260206004820152601660248201527521b0b63632b91034b9903737ba1030b71030b236b4b760511b6044820152606490fd5b15610a1f57565b60405162461bcd60e51b815260206004820152601760248201527f496e76616c6964206163636f756e7420616464726573730000000000000000006044820152606490fd5b15610a6b57565b60405162461bcd60e51b815260206004820152600c60248201526b496e76616c696420726f6c6560a01b6044820152606490fd5b15610aa657565b60405162461bcd60e51b8152602060048201526011602482015270496e76616c696420726f6c65207479706560781b6044820152606490fdfe0af1dac7dea2fd7f7738119cec7df099dfad49aa9d2e7d17ba6b60f63ae7411fa2646970667358221220e66dd6514f61205d77b1a27889f314d8dc66ca9a7c503f7461baa00bd7722ee764736f6c63430008140033",
  "linkReferences": {},
  "deployedLinkReferences": {}
}